:060000000A128A11872993
:10030E00A001A101A201A301A401A501A601A701BB
:10031E00A801A90183010A128A11FB2D831203136E
:10032E002108F301F3072008F201F2077308F10127
:10033E00F1077208F001F007A4290800F2008312F9
:10034E000313051172088700F430F0000130F1003C
:10035E000A128A11CF210A128A110A128A11E52174
:10036E000A128A110800F20083120313051572088F
:10037E008700F430F0000130F1000A128A11CF210B
:10038E000A128A110A128A11E5210A128A1108002C
:10039E0071087004031DD429D529D729E429E4292D
:1003AE000130F0020030031CF103F10271087004F9
:1003BE00031DE229E329D729E42908008312031338
:1003CE008516F430F0000130F1000A128A11CF21A7
:1003DE000A128A11831203138512F430F0000130D1
:1003EE00F1000A128A11CF210A128A110800F400B4
:1003FE00103074020318042A052A0D2A7408803E50
:10040E000A128A11A5210A128A111A2A7408EC3EC0
:10041E00F3007308F4007408C03E0A128A11A52175
:10042E000A128A111A2A0800710870040319202A68
:10043E00212A572AF5010314F50D312A0130031034
:10044E00F00DF10DFF3E031D262A0130F400740855
:10045E00F507312AF11F342A352A252A372A372A59
:10046E0071087302031D3D2A70087202031C402A94
:10047E00412A482A7008F2027108031CF303F302A2
:10048E00482A01300310F10CF00CFF3E031D492ADF
:10049E000130F502031D542A552A372A572A572AA6
:1004AE007308F101F1077208F001F0075E2A0800E7
:1004BE000030F5000030F600710870040319682A48
:1004CE00692AA72AF7010314F70D792A01300310C0
:1004DE00F00DF10DFF3E031D6E2A0130F40074087D
:1004EE00F707792AF11F7C2A7D2A6D2A7F2A7F2A17
:1004FE0001300310F50DF60DFF3E031D802A710825
:10050E007302031D8C2A70087202031C8F2A902A14
:10051E00982A7008F2027108031CF303F302751493
:10052E00982A01300310F10CF00CFF3E031D992A9E
:10053E000130F702031DA42AA52A7F2AA72AA72A7B
:10054E007608F101F1077508F001F007AE2A0800F0
:10055E0073087204710470040319B62AB72A012BAA
:10056E00F9010314F90DC92A0130F8000310F00D3A
:10057E00F10DF20DF30DF80BBD2A0130F8007808DD
:10058E00F907C92AF31FCC2ACD2ABB2ACF2ACF2A94
:10059E0073087702031DDD2A72087602031DDD2A19
:1005AE0071087502031DDD2A70087402031CE02A0F
:1005BE00E12AF02A7008F4027108031C710FF5028B
:1005CE007208031C720FF6027308031C730FF702F6
:1005DE00F02A01300310F30CF20CF10CF00CFF3E7C
:1005EE00031DF12A0130F902031DFE2AFF2ACF2A2C
:1005FE00012B012B7708F3007608F2007508F10045
:10060E007408F0000A2B08000030FC000030FB00DC
:10061E000030FA000030F90073087204710470049F
:10062E0003191A2B1B2B6F2BFD010314FD0D2D2B04
:10063E000130F8000310F00DF10DF20DF30DF80B73
:10064E00212B0130F8007808FD072D2BF31F302BDE
:10065E00312B1F2B332B332B0130F8000310F90DE8
:10066E00FA0DFB0DFC0DF80B352B73087702031DED
:10067E004A2B72087602031D4A2B71087502031D60
:10068E004A2B70087402031C4D2B4E2B5E2B7008E8
:10069E00F4027108031C710FF5027208031C720F2D
:1006AE00F6027308031C730FF70279145E2B0130E8
:1006BE000310F30CF20CF10CF00CFF3E031D5F2B3C
:1006CE000130FD02031D6C2B6D2B332B6F2B6F2B0B
:1006DE007C08F3007B08F2007A08F1007908F0003C
:1006EE00782B0800003083120313B1000030B000E5
:1006FE000030AF000030AE00D030B2000730B30093
:10070E0033083204031D8C2B8D2B8F2BDF2BDF2B0D
:10071E001F15912B1F19942B952B912B962B1E0881
:10072E00AA00AB012A08A0002B08A1002108AB00EB
:10073E002008AA000830FF000310AA0DAB0DFF0B16
:10074E00A32B2A08A0002B08A10020088316031350
:10075E001E0483120313A0002108A1002008AA0082
:10076E002108AB00AC01AD012A08AE072B0803111E
:10077E000318013E0319C42BAF072C0803110318ED
:10078E00013E0319CB2BB0072D0803110318013EB0
:10079E000319D22BB1070130B2020030031CB30390
:1007AE00B30233083204031DDD2BDE2B8F2BDF2B20
:1007BE000030F3000030F2000730F100D030F000CE
:1007CE003108F7003008F6002F08F5002E08F40067
:1007DE000A128A110B230A128A117108831203134B
:1007EE00A101A1077008A001A00708000030F300C6
:1007FE000130F2008630F100A030F00083120313B6
:10080E002D08F7002C08F6002B08F5002A08F40036
:10081E000A128A110B230A128A117008831203130B
:10082E00AE002E08AF000030F3000130F20086302B
:10083E00F100A030F0002D08F7002C08F6002B0870
:10084E00F5002A08F4000A128A11AF220A128A1140
:10085E00730883120313AD007208AC007108AB006D
:10086E007008AA000030F3000030F2002730F100CB
:10087E001030F0002D08F7002C08F6002B08F500BC
:10088E002A08F4000A128A110B230A128A11700820
:10089E0083120313AE002E08B0000030F3000030B8
:1008AE00F2002730F1001030F0002D08F7002C0870
:1008BE00F6002B08F5002A08F4000A128A11AF225E
:1008CE000A128A11730883120313AD007208AC006A
:1008DE007108AB007008AA000030F3000030F2007F
:1008EE000330F100E830F0002D08F7002C08F60078
:1008FE002B08F5002A08F4000A128A110B230A129B
:10090E008A11700883120313AE002E08B100003056
:10091E00F3000030F2000330F100E830F0002D0853
:10092E00F7002C08F6002B08F5002A08F4000A122E
:10093E008A11AF220A128A11730883120313AD00B3
:10094E007208AC007108AB007008AA000030F3000A
:10095E000030F2000030F1006430F0002D08F70096
:10096E002C08F6002B08F5002A08F4000A128A114A
:10097E000B230A128A11700883120313AE002E087D
:10098E00B2000030F3000030F2000030F1006430AD
:10099E00F0002D08F7002C08F6002B08F5002A08A9
:1009AE00F4000A128A11AF220A128A1173088312F6
:1009BE000313AD007208AC007108AB007008AA00FA
:1009CE000030F3000030F2000030F1000A30F00089
:1009DE002D08F7002C08F6002B08F5002A08F40065
:1009EE000A128A110B230A128A117008831203133A
:1009FE00AE002E08B3000030F3000030F2000030DD
:100A0E00F1000A30F0002D08F7002C08F6002B0834
:100A1E00F5002A08F4000A128A11AF220A128A116E
:100A2E00730883120313AD007208AC007108AB009B
:100A3E007008AA002F08031D252D5A2D2F08303EB1
:100A4E000A128A11BA210A128A118312031330086C
:100A5E00303E0A128A11BA210A128A118312031326
:100A6E003108303E0A128A11BA210A128A118312F3
:100A7E0003133208303E0A128A11BA210A128A1161
:100A8E00831203133308303E0A128A11BA210A1256
:100A9E008A11831203132A08303E0A128A11BA21D0
:100AAE000A128A11FA2D831203133008031D602DCA
:100ABE008C2D3008303E0A128A11BA210A128A1180
:100ACE00831203133108303E0A128A11BA210A1218
:100ADE008A11831203133208303E0A128A11BA2188
:100AEE000A128A11831203133308303E0A128A1136
:100AFE00BA210A128A11831203132A08303E0A12EF
:100B0E008A11BA210A128A11FA2D8312031331089F
:100B1E00031D922DB52D3108303E0A128A11BA21CD
:100B2E000A128A11831203133208303E0A128A11F6
:100B3E00BA210A128A11831203133308303E0A12A5
:100B4E008A11BA210A128A11831203132A08303E1F
:100B5E000A128A11BA210A128A11FA2D831203136C
:100B6E003208031DBB2DD52D3208303E0A128A11D4
:100B7E00BA210A128A11831203133308303E0A1265
:100B8E008A11BA210A128A11831203132A08303EDF
:100B9E000A128A11BA210A128A11FA2D831203132C
:100BAE003308031DDB2DEC2D3308303E0A128A115B
:100BBE00BA210A128A11831203132A08303E0A122E
:100BCE008A11BA210A128A11FA2D831203132A08E6
:100BDE00303E0A128A11BA210A128A11FA2DFA2D02
:100BEE00FA2DFA2DFA2D0800831203139E01831697
:100BFE0003139E01C5309F00DB30850086018701FF
:100C0E0083120313850186010C2E01300A128A11FC
:100C1E00A5210A128A1102300A128A11A5210A127E
:100C2E008A1106300A128A11A5210A128A110C3075
:100C3E000A128A11A5210A128A1138300A128A1153
:100C4E00A5210A128A1100300A128A11FE210A12F7
:100C5E008A1120300A128A11BA210A128A115430CE
:100C6E000A128A11BA210A128A1145300A128A1101
:100C7E00BA210A128A114D300A128A11BA210A12A9
:100C8E008A1150300A128A11BA210A128A112E3094
:100C9E000A128A11BA210A128A1141300A128A11D5
:100CAE00BA210A128A113D300A128A11BA210A1289
:100CBE008A1114300A128A11FE210A128A1120306A
:100CCE000A128A11BA210A128A1154300A128A1192
:100CDE00BA210A128A1145300A128A11BA210A1251
:100CEE008A114D300A128A11BA210A128A11503015
:100CFE000A128A11BA210A128A112E300A128A1188
:100D0E00BA210A128A1142300A128A11BA210A1223
:100D1E008A113D300A128A11BA210A128A11972EAF
:100D2E008930831203139F0008300A128A11FE21A4
:100D3E000A128A110A128A1179230A128A110A12C8
:100D4E008A1195210A128A11710883120313A701C1
:100D5E00A7077008A601A6070A30F0000030F100C0
:100D6E002708F301F3072608F201F2070A128A1187
:100D7E005F220A128A11700883120313AA007108E7
:100D8E00AB00AC01AD010A128A11FD230A128A11C1
:100D9E002E300A128A11BA210A128A110A30F00074
:100DAE000030F100831203132708F301F30726081E
:100DBE00F201F2070A128A111B220A128A11700816
:100DCE0083120313AA007108AB00AC01AD010A1225
:100DDE008A11FD230A128A11DF300A128A11BA21F2
:100DEE000A128A1143300A128A11BA210A128A1182
:100DFE0020300A128A11BA210A128A1120300A12E0
:100E0E008A11BA210A128A11831203132708A30129
:100E1E00A3072608A201A20781309F001C300A12E8
:100E2E008A11FE210A128A110A128A1179230A12D4
:100E3E008A110A128A1195210A128A1171088312D7
:100E4E000313A901A9077008A801A8070A30F0002A
:100E5E000030F1002908F301F3072808F201F20728
:100E6E000A128A115F220A128A1170088312031362
:100E7E00AA007108AB00AC01AD010A128A11FD2364
:100E8E000A128A112E300A128A11BA210A128A11F6
:100E9E000A30F0000030F100831203132908F30129
:100EAE00F3072808F201F2070A128A111B220A120E
:100EBE008A11700883120313AA007108AB00AC01EB
:100ECE00AD010A128A11FD230A128A11DF300A12AD
:100EDE008A11BA210A128A1143300A128A11BA21D2
:100EEE000A128A1120300A128A11BA210A128A11A4
:100EFE0020300A128A11BA210A128A1183120313A0
:100F0E002908A501A5072808A401A407003023027B
:100F1E00F13003192202031C952F962FA52F0030B6
:100F2E002502E6300319240203189E2F9F2FA52FAA
:100F3E0006158610061686118612F02F0030250231
:100F4E00E73003192402031CAD2FAE2FBD2F003046
:100F5E002302F030031922020318B62FB72FBD2F2C
:100F6E0006118614061286158612F02F0130250200
:100F7E005F3003192402031CC52FC62FD52F013055
:100F8E002302913003192202031CCE2FCF2FD52F0F
:100F9E0006158614061686158616F02F01302502C4
:100FAE005E30031924020318DD2FDE2FF02F0130DF
:100FBE0023029030031922020318E62FE72FF02F99
:100FCE0006118610061286118612F02FF02FF02FC2
:100FDE00F02FD030F0000730F1000A128A11CF2125
:100FEE000A128A11972E972E0C2E0C2E0A128A1187
:020FFE000028C9
:02400E00323F3F
:00000001FF
