:060000000A128A11F22F22
:1004160071087004031908000130F0020030031C53
:10042600F103F1020B2A831203132F08F301F307DA
:100436002E08F201F2077308F101F1077208F001C4
:10044600F0070800F20083120313051172088700F3
:10045600F430F0000130F1000A128A110B220A1260
:100466008A110A128A1161220800F200831203130C
:10047600051572088700F430F0000130F1000A1209
:100486008A110B220A128A110A128A1161220800A5
:10049600F400103074020318562A7408803E0A12BB
:1004A6008A11252208007408EC3EF3007308F40054
:1004B6007408C03E0A128A1125220800831203130B
:1004C6008516F430F0000130F1000A128A110B2271
:1004D6000A128A11831203138512F430F0000130D8
:1004E600F1000A128A110B22080071087004031920
:1004F600A52AF501F50AF11B8C2A01300310F00D2F
:10050600F10DFF3E031D812A0130F4007408F50742
:100516007E2A71087302031D922A70087202031C58
:100526009A2A7008F2027108031CF303F3020130E1
:100536000310F10CF00CFF3E031D9B2A0130F5025F
:10054600031D8C2A7308F101F1077208F001F00708
:100556000800F501F601710870040319E32AF70192
:10056600F70AF11BC22A01300310F00DF10DFF3E10
:10057600031DB72A0130F4007408F707B42A0130C6
:100586000310F50DF60DFF3E031DC32A7108730215
:10059600031DCF2A70087202031CD82A7008F202C3
:1005A6007108031CF303F302751401300310F10CF8
:1005B600F00CFF3E031DD92A0130F702031DC22AA3
:1005C6007608F101F1077508F001F00708007308D5
:1005D60072047104700403192D2BF901F90AF31B37
:1005E600022B0130F8000310F00DF10DF20DF30DA2
:1005F600F80BF62A0130F8007808F907F22A730892
:100606007702031D102B72087602031D102B71084A
:100616007502031D102B70087402031C202B700832
:10062600F4027108031C710FF5027208031C720FA5
:10063600F6027308031C730FF70201300310F30C64
:10064600F20CF10CF00CFF3E031D212B0130F902D8
:10065600031D022B7708F3007608F2007508F100F7
:100666007408F00008000030FC000030FB00003089
:10067600FA000030F900730872047104700403195B
:100686008B2BFD01FD0AF31B562B0130F8000310DE
:10069600F00DF10DF20DF30DF80B4A2B0130F800B9
:1006A6007808FD07462B0130F8000310F90DFA0D06
:1006B600FB0DFC0DF80B582B73087702031D6D2BF1
:1006C60072087602031D6D2B71087502031D6D2BD2
:1006D60070087402031C7E2B7008F4027108031C58
:1006E600710FF5027208031C720FF6027308031CE1
:1006F600730FF702791401300310F30CF20CF10CAE
:10070600F00CFF3E031D7F2B0130FD02031D562B0F
:100716007C08F3007B08F2007A08F1007908F00003
:100726000800003083120313A7000030A600003033
:10073600A5000030A400D030A8000730A900290881
:1007460028040319E82B1F151F19A72B1E08A00044
:10075600A1012008AE002108AF002E08A100A001CB
:100766002008AE002108AF002E08831603131E04CE
:1007760083120313A0002F08A1002008AE00210851
:10078600AF002E08A0002F08A100A201A301200897
:10079600A407210803110318013E031DA50722081B
:1007A60003110318013E031DA607230803110318AE
:1007B600013E031DA7070130A8020030031CA90350
:1007C600A90229082804031DA62B0030F3000030D7
:1007D600F2000730F100D030F0002708F7002608B5
:1007E600F6002508F5002408F4000A128A113623BB
:1007F600710883120313AF01AF077008AE01AE078D
:1008060008000030F3000130F2008630F100A0301D
:10081600F000831203132308F7002208F6002108CC
:10082600F5002008F4000A128A1136230A128A11EA
:10083600700883120313A4002408A5000030F300F7
:100846000130F2008630F100A030F0002308F700F6
:100856002208F6002108F5002008F4000A128A1181
:10086600EA220A128A11730883120313A30072087C
:10087600A2007108A1007008A0000030F30000304B
:10088600F2002730F1001030F0002308F7002208AC
:10089600F6002108F5002008F4000A128A11362312
:1008A6000A128A11700883120313A4002408A600F2
:1008B6000030F3000030F2002730F1001030F00075
:1008C6002308F7002208F6002108F5002008F400A6
:1008D6000A128A11EA220A128A1173088312031372
:1008E600A3007208A2007108A1007008A0000030E1
:1008F600F3000030F2000330F100E830F000230886
:10090600F7002208F6002108F5002008F4000A1274
:100916008A1136230A128A11700883120313A4005F
:100926002408A7000030F3000030F2000330F10085
:10093600E830F0002308F7002208F6002108F50049
:100946002008F4000A128A11EA220A128A11730890
:1009560083120313A3007208A2007108A100700895
:10096600A0000030F3000030F2000030F1006430E7
:10097600F0002308F7002208F6002108F5002008F9
:10098600F4000A128A1136230A128A117008831299
:100996000313A4002408A8000030F3000030F2007E
:1009A6000030F1006430F0002308F7002208F6005A
:1009B6002108F5002008F4000A128A11EA220A1218
:1009C6008A11730883120313A3007208A200710828
:1009D600A1007008A0000030F3000030F2000030E3
:1009E600F1000A30F0002308F7002208F60021087B
:1009F600F5002008F4000A128A1136230A128A1119
:100A0600700883120313A4002408A9000030F30021
:100A16000030F2000030F1000A30F0002308F70041
:100A26002208F6002108F5002008F4000A128A11AF
:100A3600EA220A128A11730883120313A3007208AA
:100A4600A2007108A1007008A000250803195E2DF8
:100A56002508303E0A128A1138220A128A11831298
:100A660003132608303E0A128A1138220A128A1106
:100A7600831203132708303E0A128A1138220A12FB
:100A86008A11831203132808303E0A128A1138226B
:100A96000A128A11831203132908303E0A128A1198
:100AA60038220A128A11831203132008303E0A12D2
:100AB6008A113822080083120313260803198D2D84
:100AC6002608303E0A128A1138220A128A11831227
:100AD60003132708303E0A128A1138220A128A1195
:100AE600831203132808303E0A128A1138220A128A
:100AF6008A11831203132908303E0A128A113822FA
:100B06000A128A11831203132008303E0A128A1130
:100B1600382208008312031327080319B32D270868
:100B2600303E0A128A1138220A128A1183120313DE
:100B36002808303E0A128A1138220A128A118312B4
:100B460003132908303E0A128A1138220A128A1122
:100B5600831203132008303E0A128A113822080035
:100B66008312031328080319D02D2808303E0A12D1
:100B76008A1138220A128A11831203132908303E79
:100B86000A128A1138220A128A11831203132008C4
:100B9600303E0A128A1138220800831203132908EC
:100BA6000319E42D2908303E0A128A1138220A1246
:100BB6008A11831203132008303E0A128A11382242
:100BC6000800831203132008303E0A128A113822C5
:100BD6000800831203139E01831603139E01C5307A
:100BE6009F00DB3085008601870183120313850190
:100BF600860101300A128A1125220A128A11023050
:100C06000A128A1125220A128A1106300A128A113C
:100C160025220A128A110C300A128A1125220A127A
:100C26008A1138300A128A1125220A128A110030D6
:100C36000A128A114B220A128A1120300A128A11CC
:100C460038220A128A1154300A128A1138220A12DC
:100C56008A1145300A128A1138220A128A114D3039
:100C66000A128A1138220A128A1150300A128A117F
:100C760038220A128A112E300A128A1138220A12D2
:100C86008A1141300A128A1138220A128A113D301D
:100C96000A128A1138220A128A1114300A128A118B
:100CA6004B220A128A1120300A128A1138220A129D
:100CB6008A1154300A128A1138220A128A114530D2
:100CC6000A128A1138220A128A114D300A128A1122
:100CD60038220A128A1150300A128A1138220A1250
:100CE6008A112E300A128A1138220A128A114230CB
:100CF6000A128A1138220A128A113D300A128A1102
:100D060038220A128A118930831203139F00083091
:100D16000A128A114B220A128A110A128A11942384
:100D26000A128A110A128A1116220A128A117108E7
:100D360083120313B501B5077008B401B4070A306E
:100D4600F0000030F1003508F301F3073408F20132
:100D5600F2070A128A11AC220A128A11700883124B
:100D66000313AA007108AB00AC01AD012D08A30066
:100D76002C08A2002B08A1002A08A0000A128A113A
:100D860004240A128A112E300A128A1138220A12F3
:100D96008A110A30F0000030F1008312031335087F
:100DA600F301F3073408F201F2070A128A117822D6
:100DB6000A128A11700883120313AA007108AB0085
:100DC600AC01AD012D08A3002C08A2002B08A10040
:100DD6002A08A0000A128A1104240A128A11DF3096
:100DE6000A128A1138220A128A1143300A128A110B
:100DF60038220A128A1120300A128A1138220A125F
:100E06008A1120300A128A1138220A128A11831294
:100E160003133508B101B1073408B001B0078130BA
:100E26009F001C300A128A114B220A128A110A12DA
:100E36008A1194230A128A110A128A1116220A1298
:100E46008A11710883120313B701B7077008B60138
:100E5600B6070A30F0000030F1003708F301F30757
:100E66003608F201F2070A128A11AC220A128A1116
:100E7600700883120313AA007108AB00AC01AD0120
:100E86002D08A3002C08A2002B08A1002A08A00008
:100E96000A128A1104240A128A112E300A128A11A1
:100EA60038220A128A110A30F0000030F10083124B
:100EB60003133708F301F3073608F201F2070A12A3
:100EC6008A1178220A128A11700883120313AA0063
:100ED6007108AB00AC01AD012D08A3002C08A200DF
:100EE6002B08A1002A08A0000A128A1104240A125B
:100EF6008A11DF300A128A1138220A128A11433007
:100F06000A128A1138220A128A1120300A128A110C
:100F160038220A128A1120300A128A1138220A123D
:100F26008A11831203133708B301B3073608B201D7
:100F3600B20700303102F13003193002031CAE2F24
:100F460000303302E630031932020318AE2F0615BD
:100F560086100616E62F00303302E73003193202F8
:100F6600031CC12F00303102F03003193002031880
:100F7600C12F0611861406128615E72F013033029B
:100F86005F3003193202031CD52F01303102913034
:100F960003193002031CD52F06158614061686156E
:100FA6008616E82F013033025E3003193202031829
:100FB600E82F013031029030031930020318E82F70
:100FC60006118610061286118612D030F000073000
:100FD600F1000A128A110B220A128A11862EAE011C
:100FE600AF01B001B101B201B301B401B501B6015F
:0A0FF600B70183010A128A11EC2DE5
:02400E0032FF7F
:00000001FF
