:060000000A128A11892991
:10031200AA01AB01AC01AD01AE01AF01B001B10167
:1003220083010A128A11FB2D831203132B08F30196
:10033200F3072A08F201F2077308F101F1077208C4
:10034200F001F007A4290800F2008312031305113B
:1003520072088700F430F0000130F1000A128A11AD
:10036200CF210A128A110A128A11E5210A128A1170
:100372000800F20083120313051572088700F43097
:10038200F0000130F1000A128A11CF210A128A11FB
:100392000A128A11E5210A128A11080071087004F2
:1003A200031DD429D529D729E429E4290130F002F3
:1003B2000030031CF103F10271087004031DE229ED
:1003C200E329D729E4290800831203138516F430A0
:1003D200F0000130F1000A128A11CF210A128A11AB
:1003E200831203138512F430F0000130F1000A1277
:1003F2008A11CF210A128A110800F4001030740207
:100402000318042A052A0D2A7408803E0A128A114A
:10041200A5210A128A111A2A7408EC3EF300730805
:10042200F4007408C03E0A128A11A5210A128A1128
:100432001A2A0800710870040319202A212A572A4F
:10044200F5010314F50D312A01300310F00DF10D01
:10045200FF3E031D262A0130F4007408F507312AF5
:10046200F11F342A352A252A372A372A71087302BE
:10047200031D3D2A70087202031C402A412A482AA1
:100482007008F2027108031CF303F302482A0130D8
:100492000310F10CF00CFF3E031D492A0130F50256
:1004A200031D542A552A372A572A572A7308F1015D
:1004B200F1077208F001F0075E2A08000030F5002B
:1004C2000030F600710870040319682A692AA72A05
:1004D200F7010314F70D792A01300310F00DF10D25
:1004E200FF3E031D6E2A0130F4007408F707792AD3
:1004F200F11F7C2A7D2A6D2A7F2A7F2A0130031070
:10050200F50DF60DFF3E031D802A71087302031DCF
:100512008C2A70087202031C8F2A902A982A70086B
:10052200F2027108031CF303F3027514982A0130D6
:100532000310F10CF00CFF3E031D992A0130F70263
:10054200031DA42AA52A7F2AA72AA72A7608F10131
:10055200F1077508F001F007AE2A0800730872046B
:10056200710470040319B62AB72A012BF901031486
:10057200F90DC92A0130F8000310F00DF10DF20D4A
:10058200F30DF80BBD2A0130F8007808F907C92AE3
:10059200F31FCC2ACD2ABB2ACF2ACF2A730877028F
:1005A200031DDD2A72087602031DDD2A7108750219
:1005B200031DDD2A70087402031CE02AE12AF02AD6
:1005C2007008F4027108031C710FF5027208031C13
:1005D200720FF6027308031C730FF702F02A013040
:1005E2000310F30CF20CF10CF00CFF3E031DF12A88
:1005F2000130F902031DFE2AFF2ACF2A012B012B0B
:100602007708F3007608F2007508F1007408F0002C
:100612000A2B08000030FC000030FB000030FA001A
:100622000030F900730872047104700403191A2B64
:100632001B2B6F2BFD010314FD0D2D2B0130F80038
:100642000310F00DF10DF20DF30DF80B212B01301B
:10065200F8007808FD072D2BF31F302B312B1F2BB1
:10066200332B332B0130F8000310F90DFA0DFB0D7B
:10067200FC0DF80B352B73087702031D4A2B720809
:100682007602031D4A2B71087502031D4A2B70085E
:100692007402031C4D2B4E2B5E2B7008F402710862
:1006A200031C710FF5027208031C720FF602730825
:1006B200031C730FF70279145E2B01300310F30C45
:1006C200F20CF10CF00CFF3E031D5F2B0130FD021A
:1006D200031D6C2B6D2B332B6F2B6F2B7C08F300C0
:1006E2007B08F2007A08F1007908F000782B080004
:1006F200003083120313A7000030A6000030A500CB
:100702000030A400D030A8000730A900290828042E
:10071200031D8C2B8D2B8F2BDF2BDF2B1F15912B8A
:100722001F19942B952B912B962B1E08A000A1012B
:100732002008AA002108AB002B08A1002A08A0006B
:100742000830FF000310A00DA10DFF0BA32B200802
:10075200AA002108AB002A08831603131E04831281
:100762000313AA002B08AB002A08A0002B08A10043
:10077200A201A3012008A407210803110318013EC6
:100782000319C42BA507220803110318013E0319FC
:10079200CB2BA607230803110318013E0319D22B02
:1007A200A7070130A8020030031CA903A9022908E7
:1007B2002804031DDD2BDE2B8F2BDF2B0030F300F3
:1007C2000030F2000730F100D030F0002708F700C7
:1007D2002608F6002508F5002408F4000A128A11FA
:1007E2000B230A128A11710883120313AB01AB07A0
:1007F2007008AA01AA0708000030F3000130F200D5
:100802008630F100A030F000831203132308F700B2
:100812002208F6002108F5002008F4000A128A11C5
:100822000B230A128A11700883120313A4002408EE
:10083200A5000030F3000130F2008630F100A03054
:10084200F0002308F7002208F6002108F50020082E
:10085200F4000A128A11AF220A128A117308831253
:100862000313A3007208A2007108A1007008A0007F
:100872000030F3000030F2002730F1001030F000B9
:100882002308F7002208F6002108F5002008F400EA
:100892000A128A110B230A128A1170088312031397
:1008A200A4002408A6000030F3000030F200273034
:1008B200F1001030F0002308F7002208F6002108AA
:1008C200F5002008F4000A128A11AF220A128A11D6
:1008D200730883120313A3007208A2007108A10017
:1008E2007008A0000030F3000030F2000330F10085
:1008F200E830F0002308F7002208F6002108F5008E
:100902002008F4000A128A110B230A128A117008B5
:1009120083120313A4002408A7000030F300003060
:10092200F2000330F100E830F0002308F70022085B
:10093200F6002108F5002008F4000A128A11AF22FD
:100942000A128A11730883120313A3007208A20009
:100952007108A1007008A0000030F3000030F2001E
:100962000030F1006430F0002308F7002208F6009E
:100972002108F5002008F4000A128A110B230A123A
:100982008A11700883120313A4002408A8000030FF
:10099200F3000030F2000030F1006430F000230870
:1009A200F7002208F6002108F5002008F4000A12D8
:1009B2008A11AF220A128A11730883120313A30049
:1009C2007208A2007108A1007008A0000030F300B4
:1009D2000030F2000030F1000A30F0002308F70086
:1009E2002208F6002108F5002008F4000A128A11F4
:1009F2000B230A128A11700883120313A40024081D
:100A0200A9000030F3000030F2000030F1000A309B
:100A1200F0002308F7002208F6002108F50020085C
:100A2200F4000A128A11AF220A128A117308831281
:100A32000313A3007208A2007108A1007008A000AD
:100A42002508031D252D5A2D2508303E0A128A112C
:100A5200BA210A128A11831203132608303E0A129F
:100A62008A11BA210A128A11831203132708303E0F
:100A72000A128A11BA210A128A1183120313280850
:100A8200303E0A128A11BA210A128A118312031302
:100A92002908303E0A128A11BA210A128A118312D7
:100AA20003132008303E0A128A11BA210A128A114F
:100AB200FA2D831203132608031D602D8C2D2608A0
:100AC200303E0A128A11BA210A128A1183120313C2
:100AD2002708303E0A128A11BA210A128A11831299
:100AE20003132808303E0A128A11BA210A128A1107
:100AF200831203132908303E0A128A11BA210A12FC
:100B02008A11831203132008303E0A128A11BA2175
:100B12000A128A11FA2D831203132708031D922D3C
:100B2200B52D2708303E0A128A11BA210A128A11FB
:100B3200831203132808303E0A128A11BA210A12BC
:100B42008A11831203132908303E0A128A11BA212C
:100B52000A128A11831203132008303E0A128A11E4
:100B6200BA210A128A11FA2D831203132808031DCF
:100B7200BB2DD52D2808303E0A128A11BA210A123D
:100B82008A11831203132908303E0A128A11BA21EC
:100B92000A128A11831203132008303E0A128A11A4
:100BA200BA210A128A11FA2D831203132908031D8E
:100BB200DB2DEC2D2908303E0A128A11BA210A12C5
:100BC2008A11831203132008303E0A128A11BA21B5
:100BD2000A128A11FA2D831203132008303E0A12D8
:100BE2008A11BA210A128A11FA2DFA2DFA2DFA2D3A
:100BF200FA2D0800831203139E01831603139E012C
:100C0200C5309F00DB308500860187018312031304
:100C1200850186010C2E01300A128A11A5210A12C1
:100C22008A1102300A128A11A5210A128A1106308B
:100C32000A128A11A5210A128A110C300A128A118B
:100C4200A5210A128A1138300A128A11A5210A1224
:100C52008A1100300A128A11FE210A128A112030EA
:100C62000A128A11BA210A128A1154300A128A11FE
:100C7200BA210A128A1145300A128A11BA210A12BD
:100C82008A114D300A128A11BA210A128A11503081
:100C92000A128A11BA210A128A112E300A128A11F4
:100CA200BA210A128A1141300A128A11BA210A1291
:100CB2008A113D300A128A11BA210A128A1114309D
:100CC2000A128A11FE210A128A1120300A128A118E
:100CD200BA210A128A1154300A128A11BA210A124E
:100CE2008A1145300A128A11BA210A128A114D302C
:100CF2000A128A11BA210A128A1150300A128A1172
:100D0200BA210A128A112E300A128A11BA210A1243
:100D12008A1142300A128A11BA210A128A113D300E
:100D22000A128A11BA210A128A11972E813083126D
:100D320003139F0008300A128A11FE210A128A1137
:100D42000A128A1179230A128A110A128A1195212A
:100D52000A128A11710883120313AD01AD077008DC
:100D6200AC01AC070A30F0000030F1002D08F301AD
:100D7200F3072C08F201F2070A128A115F220A1203
:100D82008A11700883120313A0007108A100A20146
:100D9200A3010A128A11FD230A128A112E300A12A5
:100DA2008A11BA210A128A110A30F0000030F100C9
:100DB200831203132D08F301F3072C08F201F20743
:100DC2000A128A111B220A128A1170088312031353
:100DD200A0007108A100A201A3010A128A11FD2339
:100DE2000A128A11DF300A128A11BA210A128A11F2
:100DF20043300A128A11BA210A128A1120300A12C9
:100E02008A11BA210A128A1120300A128A11BA21D1
:100E12000A128A11831203132D08AF01AF072C089F
:100E2200AE01AE0789309F001C300A128A11FE21E2
:100E32000A128A110A128A1179230A128A110A12D3
:100E42008A1195210A128A11710883120313AD01C6
:100E5200AD077008AC01AC070A30F0000030F100B9
:100E62002D08F301F3072C08F201F2070A128A1186
:100E72005F220A128A11700883120313A0007108FC
:100E8200A100A201A3010A128A11FD230A128A11EA
:100E92002E300A128A11BA210A128A110A30F0007F
:100EA2000030F100831203132D08F301F3072C081D
:100EB200F201F2070A128A111B220A128A11700821
:100EC20083120313A0007108A100A201A3010A1258
:100ED2008A11FD230A128A11DF300A128A11BA21FD
:100EE2000A128A1143300A128A11BA210A128A118D
:100EF20020300A128A11BA210A128A1120300A12EB
:100F02008A11BA210A128A11831203132D08B10120
:100F1200B1072C08B001B00701302F02913003193C
:100F22002E02031C952F962FA52F013031025E3021
:100F32000319300203189E2F9F2FA52F0615861026
:100F4200061686118612F02F013031025F30031926
:100F52003002031CAD2FAE2FBD2F01302F02903077
:100F620003192E020318B62FB72FBD2F06118614B0
:100F7200061286158612F02F013031025F300319F6
:100F82003002031CC52FC62FD52F01302F029130FE
:100F920003192E02031CCE2FCF2FD52F8614061530
:100FA200061686158616F02F013031025E300319BF
:100FB20030020318DD2FDE2FF02F01302F02903088
:100FC20003192E020318E62FE72FF02F86100611C1
:100FD200061286118612F02FF02FF02FF02FD0304C
:100FE200F0000730F1000A128A11CF210A128A1189
:0E0FF200972E972E0C2E0C2E0A128A11002814
:02400E00323F3F
:00000001FF
