:100000002030840034300A200A128A11C12D0406DF
:0E0010008001840A0406031D072864000034E2
:1007B00083012008A8002108A900F5002808F400FA
:1007C00008008301AA01AB01AC01AD01D030A80043
:1007D0000730A9001F151F19EB2B1E08A000A1014F
:1007E000A100A00183161E088312A0042108F500B1
:1007F0002008F400F601F701AA0775080318750F21
:10080000AB0776080318760FAC0777080318770A4A
:10081000AD07FF30A807031CA90329082804031DFE
:10082000EA2BD030F8000730F900FA01FB012A0862
:10083000F4002B08F5002C08F6002D08F7000A122A
:100840008A1175270A128A117408A0007508A10080
:100850000800A030F8008630F9000130FA00FB01F2
:10086000831203132808F4002908F5002A08F6006B
:100870002B08F7000A128A1175277408AC00A03003
:10088000F8008630F9000130FA00FB012808F40076
:100890002908F5002A08F6002B08F7000A128A1129
:1008A00075277808A8007908A9007A08AA007B08AB
:1008B000AB001030F8002730F900FA01FB012808DE
:1008C000F4002908F5002A08F6002B08F7000A12A0
:1008D0008A1175277408AD001030F8002730F90030
:1008E000FA01FB012808F4002908F5002A08F6009F
:1008F0002B08F7000A128A1175277808A8007908D2
:10090000A9007A08AA007B08AB00E830F8000330A1
:10091000F900FA01FB012808F4002908F5002A086B
:10092000F6002B08F7000A128A1175277408AE002A
:10093000E830F8000330F900FA01FB012808F40060
:100940002908F5002A08F6002B08F7000A128A1178
:1009500075277808A8007908A9007A08AA007B08FA
:10096000AB006430F800F901FA01FB012808F4003B
:100970002908F5002A08F6002B08F7000A128A1148
:1009800075277408AF006430F800F901FA01FB0123
:100990002808F4002908F5002A08F6002B08F700BB
:1009A0000A128A1175277808A8007908A9007A0820
:1009B000AA007B08AB000A30F800F901FA01FB013C
:1009C0002808F4002908F5002A08F6002B08F7008B
:1009D0000A128A1175277408B0000A30F800F9016C
:1009E000FA01FB012808F4002908F5002A08F6009E
:1009F0002B08F7000A128A1175270A128A11780843
:100A0000A8007908A9007A08AA007B08AB00AC0806
:100A10000319262D2C08303E26270A128A112D088C
:100A2000303E26270A128A112E08303E26270A1247
:100A30008A112F08303E26270A128A113008303ECC
:100A400026270A128A112808303E262FAD080319DE
:100A5000402D2D08303E26270A128A112E08303EDE
:100A600026270A128A112F08303E26270A128A11D9
:100A70003008303E26270A128A112808303E262FD9
:100A8000AE080319552D2E08303E26270A128A116A
:100A90002F08303E26270A128A113008303E2627BA
:100AA0000A128A112808303E262FAF080319652D37
:100AB0002F08303E26270A128A113008303E26279A
:100AC0000A128A112808303E262FB0080319702D0B
:100AD0003008303E26270A128A112808303E262F79
:100AE0002808303E262F8301A80010302802031862
:100AF0007C2D2808803EB72DEC30A8072808C03E82
:100B0000B72D0A308301A800A901203073250A12ED
:100B10008A11A80A0319A90A0319AA0A0319AB0A18
:100B20002808A8002908A9002A08AA002B08AB0059
:100B300029240A128A111030B2002730B300A925E7
:100B4000A8080319A903A803290828040319080001
:100B5000852D83013308320403190800B2080319F4
:100B6000B303B2033308320403190800AE2D830126
:100B7000A90005118700F430B2000130B300A925A7
:100B8000192F831203139E0183169E01C5309F0007
:100B9000DB308500860187018312850186010130E3
:100BA000B7250A128A110230B7250A128A110630B7
:100BB000B7250A128A110C30B7250A128A1138306B
:100BC000B7250A128A11003073250A128A112030C3
:100BD00026270A128A11543026270A128A11453014
:100BE00026270A128A114D3026270A128A11503000
:100BF00026270A128A112E3026270A128A1141301E
:100C000026270A128A113D3026270A128A1114302B
:100C100073250A128A11203026270A128A115430AD
:100C200026270A128A11453026270A128A114D30CA
:100C300026270A128A11503026270A128A112E30CE
:100C400026270A128A11423026270A128A113D30BD
:100C500026270A128A1181309F00083073250A1254
:100C60008A11E1230A128A11D8237408A200750898
:100C7000A3000A30F600F7012308F5002208F4006B
:100C80000A128A113B270A128A117808A8007908EB
:100C9000A900AA01AB0129240A128A112E302627A5
:100CA0000A30F600F7012308F5002208F4000A12C2
:100CB0008A113B270A128A117408A8007508A90036
:100CC000AA01AB0129240A128A11DF3026270A1251
:100CD0008A11433026270A128A11203026270A1249
:100CE0008A11203026270A128A112208A40023081C
:100CF000A50089309F001C3073250A128A11E12358
:100D00000A128A11D8237408A2007508A3000A30B9
:100D1000F600F7012308F5002208F4000A128A11F0
:100D20003B270A128A117808A8007908A900AA01AD
:100D3000AB0129240A128A112E3026270A30F60028
:100D4000F7012308F5002208F4000A128A113B2754
:100D50000A128A117408A8007508A900AA01AB013B
:100D600029240A128A11DF3026270A128A114330F9
:100D700026270A128A11203026270A128A112030CB
:100D800026270A128A112208A6002308A70001308C
:100D900025029130031924020130031CDA2E2702A8
:100DA0005E30031926020318D92E06158610061682
:100DB000112F013027025F30031926020130031C76
:100DC000ED2E25029030031924020318EC2E061193
:100DD000861406128615122F013027025F30031980
:100DE00026020130031C012F250291300319240231
:100DF000031C002F86140615061686158616132F5B
:100E0000013027025E30031926020318132F013028
:100E100025029030031924020318132F861006119F
:100E2000061286118612D030B2000730B300A92511
:100E30002B2E83018516F430B2000130B300A925B2
:100E40008512F430B2000130B300A92D8301B10046
:100E500005158700F430B2000130B300A925192F21
:100E6000830105110130B7250A128A115830B200EA
:100E70000230B300A92DFA01F801F90176087704D0
:100E8000031D452FF401F50100341F30FA0403104F
:100E9000FA0AF60DF70D031C482FF70CF60C77082D
:100EA0007502031D552F76087402031C5D2F76080A
:100EB000F4027708031C770AF502F80DF90DFA0B16
:100EC000FA1A4D2FFA1F692FF809F80A0319F903C6
:100ED000F9097808F6007908F7007A1F0034F40958
:100EE000F40A0319F503F50900348401831203138E
:100EF000B401FC01FD01FE01FF01780879047A04C8
:100F00007B040319862FC030B405912FF401F5013D
:100F1000F601F701F12F0310F80DF90DFA0DFB0D95
:100F2000B40AFB1F8B2FB40A0310FC0DFD0DFE0D40
:100F3000FF0D7B087702031DA72F7A087602031D99
:100F4000A72F79087502031DA72F78087402031CC8
:100F5000B92F7C147808F4027908031C790FF50284
:100F60007A08031C7A0FF6027B08031C7B0FF7023A
:100F70000310FB0CFA0CF90CF80CB40334083F39DD
:100F8000031D942F341FD12F0310FF30F407F409F1
:100F9000031CF507F509031CF607F609031CF70700
:100FA000F7097408F8007508F9007608FA00770860
:100FB000FB007C08F4007D08F5007E08F6007F0841
:100FC000F700B41FF12F0310FF30F407F409031CDE
:100FD000F507F509031CF607F609031CF707F709DF
:100FE000F12F840803190034770880008403760801
:100FF0008000840375088000840374088000003436
:02400E00323F3F
:00000001FF
