:060000000A128A11912989
:10032200A001A101A201A301A401A501A601A701A7
:10033200A801A90183010A128A11FB2D831203135A
:100342002108F301F3072008F201F2077308F10113
:10035200F1077208F001F007AE290800F2008312DB
:100362000313051172088700F430F0000130F10028
:100372000A128A11D9210A128A110A128A11EF214C
:100382000A128A110800F20083120313051572087B
:100392008700F430F0000130F1000A128A11D921ED
:1003A2000A128A110A128A11EF210A128A1108000E
:1003B20071087004031DDE29DF29E129EE29EE29E7
:1003C2000130F0020030031CF103F10271087004E5
:1003D200031DEC29ED29E129EE29080083120313FC
:1003E2008516F430F0000130F1000A128A11D92189
:1003F2000A128A11831203138512F430F0000130BD
:10040200F1000A128A11D9210A128A110800F40095
:100412001030740203180E2A0F2A172A7408803E1D
:100422000A128A11AF210A128A11242A7408EC3E98
:10043200F3007308F4007408C03E0A128A11AF2157
:100442000A128A11242A08007108700403192A2A40
:100452002B2A612AF5010314F50D3B2A0130031002
:10046200F00DF10DFF3E031D302A0130F400740837
:10047200F5073B2AF11F3E2A3F2A2F2A412A412A09
:1004820071087302031D472A70087202031C4A2A6C
:100492004B2A522A7008F2027108031CF303F3027A
:1004A200522A01300310F10CF00CFF3E031D532AB7
:1004B2000130F502031D5E2A5F2A412A612A612A60
:1004C2007308F101F1077208F001F007682A0800C9
:1004D200F501F601710870040319702A712AAF2A16
:1004E200F7010314F70D812A01300310F00DF10D0D
:1004F200FF3E031D762A0130F4007408F707812AB3
:10050200F11F842A852A752A872A872A0130031037
:10051200F50DF60DFF3E031D882A71087302031DB7
:10052200942A70087202031C972A982AA02A70083B
:10053200F2027108031CF303F3027514A02A0130BE
:100542000310F10CF00CFF3E031DA12A0130F7024B
:10055200031DAC2AAD2A872AAF2AAF2A7608F101F9
:10056200F1077508F001F007B62A08007308720453
:10057200710470040319BE2ABF2A092BF90103145E
:10058200F90DD12A0130F8000310F00DF10DF20D32
:10059200F30DF80BC52A0130F8007808F907D12AC3
:1005A200F31FD42AD52AC32AD72AD72A7308770257
:1005B200031DE52A72087602031DE52A71087502F9
:1005C200031DE52A70087402031CE82AE92AF82AA6
:1005D2007008F4027108031C710FF5027208031C03
:1005E200720FF6027308031C730FF702F82A013028
:1005F2000310F30CF20CF10CF00CFF3E031DF92A70
:100602000130F902031D062B072BD72A092B092BD0
:100612007708F3007608F2007508F1007408F0001C
:10062200122B08000030FC000030FB000030FA0002
:100632000030F90073087204710470040319222B4C
:10064200232B772BFD010314FD0D352B0130F80010
:100652000310F00DF10DF20DF30DF80B292B013003
:10066200F8007808FD07352BF31F382B392B272B81
:100672003B2B3B2B0130F8000310F90DFA0DFB0D5B
:10068200FC0DF80B3D2B73087702031D522B7208E9
:100692007602031D522B71087502031D522B70083E
:1006A2007402031C552B562B662B7008F40271083A
:1006B200031C710FF5027208031C720FF602730815
:1006C200031C730FF7027914662B01300310F30C2D
:1006D200F20CF10CF00CFF3E031D672B0130FD0202
:1006E200031D742B752B3B2B772B772B7C08F30088
:1006F2007B08F2007A08F1007908F000802B0800EC
:10070200003083120313B1000030B0000030AF009C
:100712000030AE00D030B2000730B30033083204EC
:10072200031D942B952B972BDF2BDF2B1F15992B5A
:100732001F199C2B9D2B992B9E2B1E08AA00AB01E7
:100742002A08A0002B08A1002008AB00AA012A0851
:10075200A0002B08A1002008831603131E04831295
:100762000313A0002108A1002008AA002108AB0061
:10077200AC01AD012A08AE072B0803110318013E94
:100782000319C42BAF072C0803110318013E0319E8
:10079200CB2BB0072D0803110318013E0319D22BEE
:1007A200B1070130B2020030031CB303B3023308B5
:1007B2003204031DDD2BDE2B972BDF2B0030F300E1
:1007C2000030F2000730F100D030F0003108F700BD
:1007D2003008F6002F08F5002E08F4000A128A11DC
:1007E20013230A128A11710883120313A101A107AC
:1007F2007008A001A00708000030F3000130F200E9
:100802008630F100A030F000831203132D08F700A8
:100812002C08F6002B08F5002A08F4000A128A11A7
:1008220013230A128A11700883120313AE002E08D2
:10083200AF000030F3000130F2008630F100A0304A
:10084200F0002D08F7002C08F6002B08F5002A0806
:10085200F4000A128A11B7220A128A11730883124B
:100862000313AD007208AC007108AB007008AA0057
:100872000030F3000030F2002730F1001030F000B9
:100882002D08F7002C08F6002B08F5002A08F400C2
:100892000A128A1113230A128A117008831203138F
:1008A200AE002E08B0000030F3000030F200273016
:1008B200F1001030F0002D08F7002C08F6002B088C
:1008C200F5002A08F4000A128A11B7220A128A11C4
:1008D200730883120313AD007208AC007108AB00F9
:1008E2007008AA000030F3000030F2000330F1007B
:1008F200E830F0002D08F7002C08F6002B08F50070
:100902002A08F4000A128A1113230A128A117008A3
:1009120083120313AE002E08B1000030F300003042
:10092200F2000330F100E830F0002D08F7002C0847
:10093200F6002B08F5002A08F4000A128A11B722E1
:100942000A128A11730883120313AD007208AC00F5
:100952007108AB007008AA000030F3000030F2000A
:100962000030F1006430F0002D08F7002C08F6008A
:100972002B08F5002A08F4000A128A1113230A121E
:100982008A11700883120313AE002E08B2000030E1
:10099200F3000030F2000030F1006430F0002D0866
:1009A200F7002C08F6002B08F5002A08F4000A12BA
:1009B2008A11B7220A128A11730883120313AD0037
:1009C2007208AC007108AB007008AA000030F30096
:1009D2000030F2000030F1000A30F0002D08F7007C
:1009E2002C08F6002B08F5002A08F4000A128A11D6
:1009F20013230A128A11700883120313AE002E0801
:100A0200B3000030F3000030F2000030F1000A3091
:100A1200F0002D08F7002C08F6002B08F5002A0834
:100A2200F4000A128A11B7220A128A117308831279
:100A32000313AD007208AC007108AB007008AA0085
:100A42002F08031D252D5A2D2F08303E0A128A1118
:100A5200C4210A128A11831203133008303E0A128B
:100A62008A11C4210A128A11831203133108303EFB
:100A72000A128A11C4210A128A118312031332083C
:100A8200303E0A128A11C4210A128A1183120313F8
:100A92003308303E0A128A11C4210A128A118312C3
:100AA20003132A08303E0A128A11C4210A128A113B
:100AB200FA2D831203133008031D602D8C2D30088C
:100AC200303E0A128A11C4210A128A1183120313B8
:100AD2003108303E0A128A11C4210A128A11831285
:100AE20003133208303E0A128A11C4210A128A11F3
:100AF200831203133308303E0A128A11C4210A12E8
:100B02008A11831203132A08303E0A128A11C42161
:100B12000A128A11FA2D831203133108031D922D32
:100B2200B52D3108303E0A128A11C4210A128A11E7
:100B3200831203133208303E0A128A11C4210A12A8
:100B42008A11831203133308303E0A128A11C42118
:100B52000A128A11831203132A08303E0A128A11DA
:100B6200C4210A128A11FA2D831203133208031DBB
:100B7200BB2DD52D3208303E0A128A11C4210A1229
:100B82008A11831203133308303E0A128A11C421D8
:100B92000A128A11831203132A08303E0A128A119A
:100BA200C4210A128A11FA2D831203133308031D7A
:100BB200DB2DEC2D3308303E0A128A11C4210A12B1
:100BC2008A11831203132A08303E0A128A11C421A1
:100BD2000A128A11FA2D831203132A08303E0A12CE
:100BE2008A11C4210A128A11FA2DFA2DFA2DFA2D30
:100BF200FA2D0800831203139E01831603139E012C
:100C0200C5309F00DB308500860187018312031304
:100C1200850186010C2E01300A128A11AF210A12B7
:100C22008A1102300A128A11AF210A128A11063081
:100C32000A128A11AF210A128A110C300A128A1181
:100C4200AF210A128A1138300A128A11AF210A1210
:100C52008A1100300A128A1108220A128A112030DF
:100C62000A128A11C4210A128A1154300A128A11F4
:100C7200C4210A128A1145300A128A11C4210A12A9
:100C82008A114D300A128A11C4210A128A11503077
:100C92000A128A11C4210A128A112E300A128A11EA
:100CA200C4210A128A1141300A128A11C4210A127D
:100CB2008A113D300A128A11C4210A128A11143093
:100CC2000A128A1108220A128A1120300A128A1183
:100CD200C4210A128A1154300A128A11C4210A123A
:100CE2008A1145300A128A11C4210A128A114D3022
:100CF2000A128A11C4210A128A1150300A128A1168
:100D0200C4210A128A112E300A128A11C4210A122F
:100D12008A1142300A128A11C4210A128A113D3004
:100D22000A128A11C4210A128A11972E893083125B
:100D320003139F0008300A128A1108220A128A112C
:100D42000A128A1181230A128A110A128A119F2118
:100D52000A128A11710883120313A701A7077008E8
:100D6200A601A6070A30F0000030F1002708F301BF
:100D7200F3072608F201F2070A128A1169220A12FF
:100D82008A11700883120313AA007108AB00AC0128
:100D9200AD010A128A11FD230A128A112E300A129B
:100DA2008A11C4210A128A110A30F0000030F100BF
:100DB200831203132708F301F3072608F201F2074F
:100DC2000A128A1125220A128A1170088312031349
:100DD200AA007108AB00AC01AD010A128A11FD2311
:100DE2000A128A11DF300A128A11C4210A128A11E8
:100DF20043300A128A11C4210A128A1120300A12BF
:100E02008A11C4210A128A1120300A128A11C421BD
:100E12000A128A11831203132708A301A3072608C3
:100E2200A201A20781309F001C300A128A110822F7
:100E32000A128A110A128A1181230A128A110A12CB
:100E42008A119F210A128A11710883120313A901C0
:100E5200A9077008A801A8070A30F0000030F100C5
:100E62002908F301F3072808F201F2070A128A118E
:100E720069220A128A11700883120313AA007108E8
:100E8200AB00AC01AD010A128A11FD230A128A11CC
:100E92002E300A128A11C4210A128A110A30F00075
:100EA2000030F100831203132908F301F307280825
:100EB200F201F2070A128A1125220A128A11700817
:100EC20083120313AA007108AB00AC01AD010A1230
:100ED2008A11FD230A128A11DF300A128A11C421F3
:100EE2000A128A1143300A128A11C4210A128A1183
:100EF20020300A128A11C4210A128A1120300A12E1
:100F02008A11C4210A128A11831203132908A50126
:100F1200A5072808A401A40700302302F130031911
:100F22002202031C952F962FA52F00302502E630B2
:100F32000319240203189E2F9F2FA52F0615861032
:100F4200061686118612F02F00302502E7300319AB
:100F52002402031CAD2FAE2FBD2F00302302F03030
:100F6200031922020318B62FB72FBD2F06118614BC
:100F7200061286158612F02F013025025F30031902
:100F82002402031CC52FC62FD52F01302302913016
:100F920003192202031CCE2FCF2FD52F061586143C
:100FA200061686158616F02F013025025E300319CB
:100FB20024020318DD2FDE2FF02F013023029030A0
:100FC200031922020318E62FE72FF02F06118610CD
:100FD200061286118612F02FF02FF02FF02FD0304C
:100FE200F0000730F1000A128A11D9210A128A117F
:0E0FF200972E972E0C2E0C2E0A128A11002814
:02400E00323F3F
:00000001FF
