:060000000A128A11932987
:10032600AA01AB01AC01AD01AE01AF01B001B10153
:1003360083010A128A11FB2D831203132B08F30182
:10034600F3072A08F201F2077308F101F1077208B0
:10035600F001F007AE290800F20083120313051519
:1003660072088700F430F0000130F1000A128A1199
:10037600D9210A128A110A128A11EF210A128A1148
:100386000800F20083120313051172088700F43087
:10039600F0000130F1000A128A11D9210A128A11DD
:1003A6000A128A11EF210A128A11080071087004D4
:1003B600031DDE29DF29E129EE29EE290130F002AD
:1003C6000030031CF103F10271087004031DEC29CF
:1003D600ED29E129EE290800831203138516F4306E
:1003E600F0000130F1000A128A11D9210A128A118D
:1003F600831203138512F430F0000130F1000A1263
:100406008A11D9210A128A110800F40010307402E8
:1004160003180E2A0F2A172A7408803E0A128A1118
:10042600C4210A128A11242A7408EC3EF3007308C8
:10043600F4007408C03E0A128A11C4210A128A11F5
:10044600242A08007108700403192A2A2B2A612A13
:10045600F5010314F50D3B2A01300310F00DF10DE3
:10046600FF3E031D302A0130F4007408F5073B2ACD
:10047600F11F3E2A3F2A2F2A412A412A7108730278
:10048600031D472A70087202031C4A2A4B2A522A65
:100496007008F2027108031CF303F302522A0130BA
:1004A6000310F10CF00CFF3E031D532A0130F50238
:1004B600031D5E2A5F2A412A612A612A7308F10117
:1004C600F1077208F001F007682A0800F501F60145
:1004D600710870040319702A712AAF2AF7010314F0
:1004E600F70D812A01300310F00DF10DFF3E031DBB
:1004F600762A0130F4007408F707812AF11F842A4E
:10050600852A752A872A872A01300310F50DF60DEC
:10051600FF3E031D882A71087302031D942A700882
:100526007202031C972A982AA02A7008F202710800
:10053600031CF303F3027514A02A01300310F10C17
:10054600F00CFF3E031DA12A0130F702031DAC2A61
:10055600AD2A872AAF2AAF2A7608F101F107750876
:10056600F001F007B62A08007308720471047004DB
:100576000319BE2ABF2A092BF9010314F90DD12A42
:100586000130F8000310F00DF10DF20DF30DF80B2C
:10059600C52A0130F8007808F907D12AF31FD42AB2
:1005A600D52AC32AD72AD72A73087702031DE52A34
:1005B60072087602031DE52A71087502031DE52AF5
:1005C60070087402031CE82AE92AF82A7008F40263
:1005D6007108031C710FF5027208031C720FF602F4
:1005E6007308031C730FF702F82A01300310F30C8B
:1005F600F20CF10CF00CFF3E031DF92A0130F90252
:10060600031D062B072BD72A092B092B7708F30086
:100616007608F2007508F1007408F000122B080045
:100626000030FC000030FB000030FA000030F9001A
:1006360073087204710470040319222B232B772B81
:10064600FD010314FD0D352B0130F8000310F00DEC
:10065600F10DF20DF30DF80B292B0130F800780897
:10066600FD07352BF31F382B392B272B3B2B3B2B29
:100676000130F8000310F90DFA0DFB0DFC0DF80B17
:100686003D2B73087702031D522B72087602031D59
:10069600522B71087502031D522B70087402031C3D
:1006A600552B562B662B7008F4027108031C710F2C
:1006B600F5027208031C720FF6027308031C730F0F
:1006C600F7027914662B01300310F30CF20CF10CCF
:1006D600F00CFF3E031D672B0130FD02031D742B3A
:1006E600752B3B2B772B772B7C08F3007B08F200CE
:1006F6007A08F1007908F000802B08000030831298
:100706000313A7000030A6000030A5000030A400A7
:10071600D030A8000730A90029082804031D942B0F
:10072600952B972BDF2BDF2B1F15992B1F199C2B36
:100736009D2B992B9E2B1E08A000A1012008AA0024
:100746002108AB002A08A100A0012008AA00210860
:10075600AB002A08831603131E0483120313AA0090
:100766002B08AB002A08A0002B08A100A201A301B8
:100776002008A407210803110318013E0319C42BFE
:10078600A507220803110318013E0319CB2BA60760
:10079600230803110318013E0319D22BA7070130C2
:1007A600A8020030031CA903A90229082804031D76
:1007B600DD2BDE2B972BDF2B0030F3000030F20011
:1007C6000730F100D030F0002708F7002608F600C1
:1007D6002508F5002408F4000A128A1113230A12C8
:1007E6008A11710883120313AB01AB077008AA01C3
:1007F600AA0708000030F3000130F2008630F1004D
:10080600A030F000831203132308F7002208F60035
:100816002108F5002008F4000A128A1113230A128F
:100826008A11700883120313A4002408A50000305F
:10083600F3000130F2008630F100A030F00023080A
:10084600F7002208F6002108F5002008F4000A1235
:100856008A11B7220A128A11730883120313A3009E
:100866007208A2007108A1007008A0000030F30011
:100876000030F2002730F1001030F0002308F700B6
:100886002208F6002108F5002008F4000A128A1151
:1008960013230A128A11700883120313A400240872
:1008A600A6000030F3000030F2002730F1001030CF
:1008B600F0002308F7002208F6002108F5002008BA
:1008C600F4000A128A11B7220A128A1173088312D7
:1008D6000313A3007208A2007108A1007008A0000B
:1008E6000030F3000030F2000330F100E830F00091
:1008F6002308F7002208F6002108F5002008F40076
:100906000A128A1113230A128A117008831203131A
:10091600A4002408A7000030F3000030F2000330E2
:10092600F100E830F0002308F7002208F60021085D
:10093600F5002008F4000A128A11B7220A128A1159
:10094600730883120313A3007208A2007108A100A2
:100956007008A0000030F3000030F2000030F10013
:100966006430F0002308F7002208F6002108F5009D
:100976002008F4000A128A1113230A128A11700839
:1009860083120313A4002408A8000030F3000030EB
:10099600F2000030F1006430F0002308F70022086E
:1009A600F6002108F5002008F4000A128A11B72281
:1009B6000A128A11730883120313A3007208A20095
:1009C6007108A1007008A0000030F3000030F200AA
:1009D6000030F1000A30F0002308F7002208F60084
:1009E6002108F5002008F4000A128A1113230A12BE
:1009F6008A11700883120313A4002408A90000308A
:100A0600F3000030F2000030F1000A30F000230855
:100A1600F7002208F6002108F5002008F4000A1263
:100A26008A11B7220A128A11730883120313A300CC
:100A36007208A2007108A1007008A0002508031D15
:100A4600252D5A2D2508303E0A128A11AF210A1289
:100A56008A11831203132608303E0A128A11AF2127
:100A66000A128A11831203132708303E0A128A11CA
:100A7600AF210A128A11831203132808303E0A1284
:100A86008A11AF210A128A11831203132908303EF4
:100A96000A128A11AF210A128A118312031320083F
:100AA600303E0A128A11AF210A128A11FA2D8312D8
:100AB60003132608031D602D8C2D2608303E0A12CE
:100AC6008A11AF210A128A11831203132708303EB6
:100AD6000A128A11AF210A128A11831203132808F7
:100AE600303E0A128A11AF210A128A1183120313A9
:100AF6002908303E0A128A11AF210A128A1183127E
:100B060003132008303E0A128A11AF210A128A11F5
:100B1600FA2D831203132708031D922DB52D2708DE
:100B2600303E0A128A11AF210A128A118312031368
:100B36002808303E0A128A11AF210A128A1183123E
:100B460003132908303E0A128A11AF210A128A11AC
:100B5600831203132008303E0A128A11AF210A12AB
:100B66008A11FA2D831203132808031DBB2DD52DD8
:100B76002808303E0A128A11AF210A128A118312FE
:100B860003132908303E0A128A11AF210A128A116C
:100B9600831203132008303E0A128A11AF210A126B
:100BA6008A11FA2D831203132908031DDB2DEC2D60
:100BB6002908303E0A128A11AF210A128A118312BD
:100BC60003132008303E0A128A11AF210A128A1135
:100BD600FA2D831203132008303E0A128A11AF2120
:100BE6000A128A11FA2DFA2DFA2DFA2DFA2D08007D
:100BF600831203139E01831603139E01C5309F00C3
:100C0600DB30850086018701831203138501860187
:100C16000C2E01300A128A11C4210A128A110230DE
:100C26000A128A11C4210A128A1106300A128A117E
:100C3600C4210A128A110C300A128A11C4210A121E
:100C46008A1138300A128A11C4210A128A11003018
:100C56000A128A1108220A128A1120300A128A11EF
:100C6600AF210A128A1154300A128A11AF210A12D0
:100C76008A1145300A128A11AF210A128A114D30A3
:100C86000A128A11AF210A128A1150300A128A11E9
:100C9600AF210A128A112E300A128A11AF210A12C6
:100CA6008A1141300A128A11AF210A128A113D3087
:100CB6000A128A11AF210A128A1114300A128A11F5
:100CC60008220A128A1120300A128A11AF210A124A
:100CD6008A1154300A128A11AF210A128A1145303C
:100CE6000A128A11AF210A128A114D300A128A118C
:100CF600AF210A128A1150300A128A11AF210A1244
:100D06008A112E300A128A11AF210A128A11423034
:100D16000A128A11AF210A128A113D300A128A116B
:100D2600AF210A128A11972E8130831203139F0076
:100D360008300A128A1108220A128A110A128A1126
:100D460081230A128A110A128A119F210A128A1114
:100D5600710883120313AD01AD077008AC01AC072F
:100D66000A30F0000030F1002D08F301F3072C08DB
:100D7600F201F2070A128A1169220A128A11700810
:100D860083120313A0007108A100A201A3010A1295
:100D96008A11FD230A128A112E300A128A11AF21F6
:100DA6000A128A110A30F0000030F1008312031390
:100DB6002D08F301F3072C08F201F2070A128A1133
:100DC60025220A128A11700883120313A0007108E3
:100DD600A100A201A3010A128A11FD230A128A1197
:100DE600DF300A128A11AF210A128A1143300A1221
:100DF6008A11AF210A128A1120300A128A11AF21F4
:100E06000A128A1120300A128A11AF210A128A1197
:100E1600831203132D08AF01AF072C08AE01AE07EE
:100E260089309F001C300A128A1108220A128A1180
:100E36000A128A1181230A128A110A128A119F2123
:100E46000A128A11710883120313AD01AD077008E7
:100E5600AC01AC070A30F0000030F1002D08F301B8
:100E6600F3072C08F201F2070A128A1169220A1204
:100E76008A11700883120313A0007108A100A20151
:100E8600A3010A128A11FD230A128A112E300A12B0
:100E96008A11AF210A128A110A30F0000030F100DF
:100EA600831203132D08F301F3072C08F201F2074E
:100EB6000A128A1125220A128A1170088312031354
:100EC600A0007108A100A201A3010A128A11FD2344
:100ED6000A128A11DF300A128A11AF210A128A1108
:100EE60043300A128A11AF210A128A1120300A12DF
:100EF6008A11AF210A128A1120300A128A11AF21F3
:100F06000A128A11831203132D08B101B1072C08A6
:100F1600B001B00701302F02913003192E02031CD5
:100F2600952F962FA52F013031025E30031930021E
:100F360003189E2F9F2FA52F0615861006168611BD
:100F46008612F02F013031025F3003193002031C84
:100F5600AD2FAE2FBD2F01302F02903003192E0278
:100F66000318B62FB72FBD2F061186140612861545
:100F76008612F02F013031025F3003193002031C54
:100F8600C52FC62FD52F01302F02913003192E02FF
:100F9600031CCE2FCF2FD52F8614061506168615C1
:100FA6008616F02F013031025E3003193002031825
:100FB600DD2FDE2FF02F01302F02903003192E0285
:100FC6000318E62FE72FF02F86100611061286115A
:100FD6008612F02FF02FF02FF02FD030F0000730D0
:100FE600F1000A128A11D9210A128A11972E972E18
:0A0FF6000C2E0C2E0A128A1100289E
:02400E00323F3F
:00000001FF
